:100000000C942A000C9447000C9447000C94470071
:100010000C9447000C9447000C9447000C94470044
:100020000C9447000C9447000C9447000C94490131
:100030000C9447000C946F010C9447000C944700FB
:100040000C9447000C9447000C9447000C94470014
:100050000C94470011241FBECFE5D4E0DEBFCDBF16
:1000600010E0A0E6B0E0EAE1FEE002C005900D92EB
:10007000A83EB107D9F711E0A8EEB0E001C01D928B
:10008000A133B107E1F70E9479010C940B070C949E
:10009000000080911801813029F48093FB00809347
:1000A000010111C01092FB00109201018091190111
:1000B000813029F48093FC008093020104C01092E7
:1000C000FC001092020180911A01813029F4809382
:1000D000FE008093060111C01092FE0010920601EE
:1000E00080911B01813029F48093FD0080930501EC
:1000F00004C0109205011092FD0080911C01813016
:1001000019F48093F90002C01092F90080911D014A
:10011000813019F48093F80002C01092F8008091A9
:100120001E01813019F48093FA0002C01092FA0087
:1001300080911F01813029F48093FF008093030197
:1001400008951092FF0010920301809120018130E8
:1001500029F4809300018093040108951092000116
:100160001092040108951092E9001092E80060E0F6
:1001700070E0A1E01092E90026B3FB01EE0FFF1F33
:10018000E752FF4F8081918130E082239323892BB6
:10019000A1F440E050E086B32081318190E0282333
:1001A0003923232B41F4A093E9004F5F5F4F4A307E
:1001B000510589F702C01092E9008091E900813071
:1001C00039F4E091E800F0E0E85EFE4F808306C07D
:1001D000E091E800F0E0E85EFE4F10828091E800D8
:1001E0008F5F8093E8006F5F7F4F6730710511F676
:1001F0001092E90082990EC080E090E021E082999F
:1002000007C02093E90001968A309105C1F702C02A
:100210001092E9008091E900813039F4E091E80022
:10022000F0E0E85EFE4F808306C0E091E800F0E079
:10023000E85EFE4F10828091E8008F5F8093E800B7
:100240001092E90083990EC080E090E021E083994C
:1002500007C02093E90001968A309105C1F702C0DA
:100260001092E9008091E900813039F4E091E800D2
:10027000F0E0E85EFE4F808306C0E091E800F0E029
:10028000E85EFE4F10828091E8008F5F8093E80067
:1002900008951F920F920FB60F9211248F93EF9330
:1002A000FF93E091EC00F0E08CB1EF5DFE4F8083B6
:1002B0008091EC008F5F8093EC00E091EC00F0E027
:1002C000E05EFE4F80818D3011F41092EC00FF91C2
:1002D000EF918F910F900FBE0F901F9018951F9266
:1002E0000F920FB60F9211240F900FBE0F901F9018
:1002F00018954F925F926F927F928F929F92AF92DA
:10030000BF92CF92DF92EF92FF920F931F93CF9302
:10031000DF9317BA8FEF88BB8A988B98929A939A3B
:100320000E94B3058FE590E00E94C70580E00E941F
:100330003306789481E060E00E940B0680E061E083
:100340000E94CF0680E690E00E946306C0E0D0E005
:1003500000E018E481E161E00E94CF06CE0163E095
:1003600070E00E947106C8010197F1F72196C4362A
:10037000D10581F781E060E00E940B0683E060E038
:100380000E94CF0681E790E00E94630687E062E06A
:100390000E94CF068FE790E00E94630680EA9FE00C
:1003A00020E731E0F9013197F1F70197D9F7109281
:1003B000EB001092EA000091EA001091EB0080E05F
:1003C00090E00E94B805080F191F1093EB000093EE
:1003D000EA000091EA001091EB0080E090E00E94BA
:1003E000B805080F191F1093EB000093EA00009165
:1003F000EA001091EB0080E090E00E94B805080F41
:10040000191F1093EB000093EA008091EA0090918D
:10041000EB006CE070E00E94E4067093EB006093E8
:10042000EA002091EA003091EB008FEF90E0821B10
:10043000930B24E630E0AC01429FC001439F900D36
:10044000529F900D11246FEF70E00E94E4067093AC
:10045000EB006093EA008091EA009091EB008093BA
:10046000F1008091EA009091EB008093F000F4E6B7
:10047000EF2EEAE07E2E7FEFA72EB12C64E6862ECB
:10048000912CC1E0D0E050E7C52E51E0D52E42E3DB
:10049000442E36E0632E2FE0F22E94E0592E209168
:1004A0002401409125018091260190E0805D9441D6
:1004B0002E9D90011124820F931F479DA0011124AE
:1004C000840F951F90930D0180930C0120912A01B8
:1004D00040912B0180912C0190E0805D94412E9DF4
:1004E00090011124820F931F479DA0011124840FB6
:1004F000951F90930F0180930E011092EB001092C4
:10050000EA000091EA001091EB0080E090E00E9488
:10051000B805080F191F1093EB000093EA00009133
:10052000EA001091EB0080E090E00E94B805080F0F
:10053000191F1093EB000093EA000091EA0010915C
:10054000EB0080E090E00E94B805080F191F10939F
:10055000EB000093EA008091EA009091EB006CE0E0
:1005600070E00E94E4067093EB006093EA008091D3
:10057000EA009091EB009501281B390B289DC001E2
:10058000299D900D389D900D11246FEF70E00E9411
:10059000E4067093EB006093EA000E94B3000E94AF
:1005A00049008091F800813039F0809107019091E5
:1005B0000801019709F0D5C1D0930801C093070144
:1005C00010920A01109209010E94B3000E94490092
:1005D00080910101813051F480930B0180931501CA
:1005E00080910C0190910D018093F20080910201A5
:1005F000813069F48093150180930B018091F200A2
:10060000882329F08091F20081508093F20080913C
:100610000501813081F48093150182E080930B0104
:100620008091F3008F5F8093F3008091F300833318
:1006300010F04092F30080910601813059F48093CC
:10064000150182E080930B0180910E0190910F01C2
:100650008093F30080910301813081F48093150130
:1006600083E080930B018091F0008F5F8093F00016
:100670008091F000853610F0E092ED008091040149
:100680008130C1F48093150183E080930B01809148
:10069000F000882329F08091F00081508093F000D1
:1006A0009091F0008091F100981720F48091F10072
:1006B0008093F0001091FA00113009F06CC0809125
:1006C00014018823F1F48AEE90E00E94D20580E7BD
:1006D00090E00E94D2058091F10090E00E94D20546
:1006E00080E090E00E94D2058DE090E00E94D2056B
:1006F0001093140188EE93E0F6013197F1F701971A
:10070000D9F780910B01823091F48AEE90E00E943B
:10071000D20581E890E00E94D2058091F30090E03C
:100720000E94D20580910E0190910F012BC0809103
:100730000B01833091F48AEE90E00E94D20582E8AA
:1007400090E00E94D2058091F00090E00E94D205D6
:100750008091EA009091EB0015C080910B018130EF
:10076000B9F48AEE90E00E94D20583E890E00E94FE
:10077000D2058091F20090E00E94D20580910C0198
:1007800090910D010E94D2058DE090E00E94D2056B
:1007900081E08093150180911501882309F078C0CC
:1007A00081E060E00E940B0685E060E00E94CF06D9
:1007B00086E890E00E94630680E061E00E94CF0638
:1007C00080E990E00E94630680910C0190910D01F8
:1007D00063E070E00E94710684E990E00E94630685
:1007E00080910C0190910D0163E070E00E94710610
:1007F00089E990E00E94630680E062E00E94CF06F3
:100800008DE990E00E94630680910E0190910F01A6
:1008100063E070E00E94710684E990E00E94630644
:1008200080910E0190910F0163E070E00E947106CB
:1008300081EA90E00E94630680E063E00E94CF06B8
:1008400085EA90E00E9463068091F00090E063E00A
:1008500070E00E94710684E990E00E946306809136
:10086000EA009091EB0063E070E00E94710689E974
:1008700090E00E94630680910E0190910F01809399
:10088000F30080910C0190910D018093F20069C0FA
:1008900081E060E00E940B0685E060E00E94CF06E8
:1008A00086E890E00E94630680E061E00E94CF0647
:1008B00080E990E00E9463068091F20090E063E09E
:1008C00070E00E94710684E990E00E9463068091C6
:1008D0000C0190910D0163E070E00E94710689E9BE
:1008E00090E00E94630680E062E00E94CF068DE9FE
:1008F00090E00E9463068091F30090E063E070E076
:100900000E94710684E990E00E94630680910E01C6
:1009100090910F0163E070E00E94710681EA90E01F
:100920000E94630680E063E00E94CF0685EA90E0C3
:100930000E9463068091F00090E063E070E00E9406
:10094000710684E990E00E9463068091EA0090912C
:10095000EB0063E070E00E94710689E990E00E947C
:1009600063068091F900813039F0809109019091FE
:100970000A01019709F0EEC01092080110920701D8
:10098000D0930A01C09309010E94B3000E9449005C
:100990008091FB00813069F450920B018091EE0050
:1009A0008F5F8093EE008091EE00803110F0F09226
:1009B000EE008091FC00813059F450920B0180913F
:1009C000EE00882329F08091EE0081508093EE00A4
:1009D0008091FF00813071F485E080930B0180915C
:1009E000ED008F5F8093ED008091ED00803110F07D
:1009F000F092ED0080910001813061F485E08093F8
:100A00000B018091ED00882329F08091ED00815049
:100A10008093ED008091FD00813069F460920B01BC
:100A20008091EF008F5F8093EF008091EF00803125
:100A300010F0F092EF008091FE00813059F4609246
:100A40000B018091EF00882329F08091EF00815005
:100A50008093EF008091FA008130B9F580910B010D
:100A6000863059F48AEE90E00E94D20581E090E051
:100A70000E94D2058091EF001DC080910B0185304E
:100A800059F48AEE90E00E94D20582E090E00E9444
:100A9000D2058091ED000EC080910B018430A9F445
:100AA0008AEE90E00E94D20583E090E00E94D20599
:100AB0008091EE0090E00E94D20580E090E00E94DC
:100AC000D2058DE090E00E94D20581E060E00E94B6
:100AD0000B0683E060E00E94CF0689EA90E00E9466
:100AE000630680E061E00E94CF0688EB90E00E9400
:100AF000630680E062E00E94CF0683EC90E00E94F3
:100B0000630680E063E00E94CF068EEC90E00E94D6
:100B100063068BE061E00E94CF068091EE0090E0DA
:100B200063E070E00E9471068BE062E00E94CF06F5
:100B30008091EF0090E063E070E00E9471068BE02E
:100B400063E00E94CF068091ED0090E063E070E0EA
:100B50000E94710688EB9BE0F6013197F1F701974F
:100B600009F49DCCF9CF80E487B987E886B9089568
:100B700097B1987F97B997B18770892B87B9369AC3
:100B8000349BFECF349A24B135B1C901089589B997
:100B900090BD86E880BD88ED8AB908955F9BFECF41
:100BA0008CB108955D9BFECF8CB90895FC0104C003
:100BB0005D9BFECF8CB9319680818823C9F708955B
:100BC00084B3807F84BB959A969882E08A95F1F7EA
:100BD00022E034E0979A822F8A95F1F783B38295C9
:100BE000807F922F9A95F1F79798932F9A95F1F726
:100BF000979A922F9A95F1F793B3922F9A95F1F7CE
:100C00009798932F9A95F1F787FDE4CF959884B341
:100C10008F6084BB0895282F662311F4969801C035
:100C2000969A82E08A95F1F7979A85B3922F9295DA
:100C30009F70807F982B95BB94E0892F8A95F1F760
:100C40009798892F8A95F1F7979A85B32F70807FAF
:100C5000822B85BB892F8A95F1F797989A95F1F7A2
:100C60000E94E00508951F93182F8CE291E020E781
:100C700031E0F9013197F1F70197D9F784B38F602B
:100C800084BB8F9A8E9A8D9A85B3807F85BB979807
:100C90009598969881E08A95F1F7979AA99A84E0B9
:100CA000982F9A95F1F797988A95F1F70E94E005A9
:100CB000812F8C6060E00E940B0688E260E00E9459
:100CC0000B061F910895CF93DF93EC0104C061E000
:100CD0000E940B06219688818823C9F7DF91CF9166
:100CE0000895EF92FF920F931F93DF93CF9300D05D
:100CF00000D00F92CDB7DEB79C018B01FE0131967B
:100D000085E0DF011D928A95E9F7FE0135960DC059
:100D1000C9016AE070E00E94F8068083C9016AE0B8
:100D200070E00E94F8069B0131972115310581F78B
:100D3000BFEF0F3F1B0779F420E030E0AE014F5FBB
:100D40005F4F02C02F5F3F4FFA01E20FF31F808118
:100D50008823C1F304C025E030E0201B310B7E0165
:100D60000894E11CF11CE20EF31E890109C0F70191
:100D700081917F01805D61E00E940B060F5F1F4F34
:100D800005301105A4F30F900F900F900F900F9066
:100D9000CF91DF911F910F91FF90EF9008958431D3
:100DA00090F4662311F480680BC0613011F4806CFC
:100DB00007C0623011F4846903C0633009F4846DA4
:100DC00060E00E940B060895AA1BBB1B51E107C0FF
:100DD000AA1FBB1FA617B70710F0A61BB70B881FCB
:100DE000991F5A95A9F780959095BC01CD0108955A
:100DF00097FB092E07260AD077FD04D0E5DF06D041
:100E000000201AF4709561957F4F0895F6F790953C
:0A0E100081959F4F0895F894FFCFDD
:100E1A00496E697469616C697A696E672E2E2E2033
:100E2A00004859425249442052454D4F54450053B7
:100E3A00595354454D004155544F204D4F44450098
:100E4A00483A2000202020200020202500543A2063
:100E5A0000202043004C3A200053454D492D41556E
:100E6A00544F204D4F44450046414E204C4556456F
:100E7A004C3A00485452204C4556454C3A004C478F
:100E8A0054204C4556454C3A0002000400100020FC
:080E9A00000100400008000007
:00000001FF
