:100000000C942A000C9447000C9447000C94470071
:100010000C9447000C9447000C9447000C94470044
:100020000C9447000C9447000C9447000C94490032
:100030000C9447000C9447000C9447000C94470024
:100040000C9447000C9447000C9447000C94470014
:100050000C94470011241FBECFE5D4E0DEBFCDBF16
:1000600010E0A0E6B0E0E8E1FDE002C005900D92EE
:10007000A83DB107D9F710E0A8EDB0E001C01D928E
:10008000A83FB107E1F70E9437020C948A060C944E
:1000900000001F920F920FB60F9211248F939F931F
:1000A000AF93BF93EF93FF938091D9008823E9F436
:1000B0008091D8009CB1E1EFF0E0DF01A80FB11D05
:1000C0009C938091D800E80FF11D80818D3021F044
:1000D0008091D800863021F481E08093D90005C05A
:1000E0008091D8008F5F8093D800FF91EF91BF91EE
:1000F000AF919F918F910F900FBE0F901F90189509
:1001000020E030E049EB50E0FA01E20FF31F90816C
:100110008091DD00981731F02F5F3F4F203131057E
:1001200099F708C020FF06C0E5E3F0E08081806217
:10013000808305C0E5E3F0E080818F7D808321FF2F
:1001400006C0E5E3F0E080818064808305C0E5E3DC
:10015000F0E080818F7B808322FF06C0E5E3F0E042
:1001600080818068808305C0E5E3F0E080818F773F
:10017000808323FF06C0E5E3F0E080818061808317
:100180000895E5E3F0E080818F7E8083089520E08C
:1001900030E049EB50E0FA01E20FF31F90818091CB
:1001A000DE00981731F02F5F3F4F2031310599F76E
:1001B00008C020FF06C0EBE3F0E080818068808308
:1001C00005C0EBE3F0E080818F77808321FF06C0DC
:1001D000E2E3F0E080818061808305C0E2E3F0E04B
:1001E00080818F7E808322FF06C0E2E3F0E0808181
:1001F0008860808305C0E2E3F0E08081877F8083B0
:1002000023FF06C0E2E3F0E08081846080830895EC
:10021000E2E3F0E080818B7F8083089520E030E08E
:1002200049EB50E0FA01E20FF31F90818091DC006E
:10023000981731F02F5F3F4F2031310599F708C0F3
:1002400020FF06C0E8E3F0E080818160808305C084
:10025000E8E3F0E080818E7F808321FF06C0E8E341
:10026000F0E080818260808305C0E8E3F0E0808177
:100270008D7F808322FF06C0E8E3F0E08081846008
:10028000808305C0E8E3F0E080818B7F808323FFDB
:1002900006C0E8E3F0E08081886080830895E8E3A9
:1002A000F0E08081877F808308951F938091E40030
:1002B000182F80E161E00E944E068091E40090E0FA
:1002C00063E070E00E94F00510FF06C0E5E3F0E097
:1002D00080818062808305C0E5E3F0E080818F7DCE
:1002E000808311FF06C0E5E3F0E0808180648083B5
:1002F00005C0E5E3F0E080818F7B808312FF06C0BC
:10030000E5E3F0E080818068808305C0E5E3F0E00C
:1003100080818F77808313FF06C0E5E3F0E0808162
:100320008061808305C0E5E3F0E080818F7E80837B
:100330001F9108951F938091E300182F80E161E0E1
:100340000E944E068091E30090E063E070E00E941E
:10035000F00510FF06C0EBE3F0E080818068808349
:1003600005C0EBE3F0E080818F77808311FF06C04A
:10037000E2E3F0E080818061808305C0E2E3F0E0A9
:1003800080818F7E808312FF06C0E2E3F0E08081EF
:100390008860808305C0E2E3F0E08081877F80830E
:1003A00013FF06C0E2E3F0E080818460808305C033
:1003B000E2E3F0E080818B7F80831F9108951F939B
:1003C0008091E200182F80E161E00E944E0680914A
:1003D000E20090E063E070E00E94F0058EE060E0F3
:1003E0000E944E0680E690E00E94E20580E160E017
:1003F0000E944E068091F70090E063E070E00E945A
:10040000F00510FF06C0E8E3F0E0808181608083A2
:1004100005C0E8E3F0E080818E7F808311FF06C095
:10042000E8E3F0E080818260808305C0E8E3F0E0EB
:1004300080818D7F808312FF06C0E8E3F0E0808139
:100440008460808305C0E8E3F0E080818B7F808357
:1004500013FF06C0E8E3F0E080818860808305C078
:10046000E8E3F0E08081877F80831F9108952F92D9
:100470003F924F925F926F927F928F929F92AF9234
:10048000BF92CF92DF92EF92FF920F931F93DF9371
:10049000CF9300D0CDB7DEB78FEF87BB88BBE4E347
:1004A000F0E08081806180838081806880838081AA
:1004B00080648083808180628083E5E3F0E08081D6
:1004C0008061808380818068808380818064808374
:1004D000808180628083EAE3F0E0808180688083AD
:1004E000E1E3F0E0808180618083808188608083A7
:1004F000808184608083EBE3F0E08081806880838A
:10050000E2E3F0E080818061808380818860808385
:1005100080818460808380E00E94B205789481E0CD
:1005200060E00E948A0580E061E00E944E0684E659
:1005300090E00E94E2058FE590E00E94460501EF01
:1005400010E00F2EF5EFEF2EF0E0FF2EF02D0F2E26
:10055000F9E8AF2EF0E0BF2EF02D0F2EF8E98F2E28
:10056000F0E09F2EF02D0F2EF3EA6F2EF0E07F2E9D
:10057000F02D0F2EFEEA4F2EF0E05F2EF02D0F2E05
:10058000F3EFCF2EF0E0DF2EF02D0F2EFEE62F2E14
:10059000F0E03F2EF02DC60101969A838983809169
:1005A000D9008130E1F7F80180818A3E09F055C217
:1005B000F70180818D3009F050C2E2EFF0E08081D8
:1005C000803721F4F60180818093F000E2EFF0E0C3
:1005D000808188230CF0DAC18081813809F087C0DE
:1005E000F60180818093E100E981FA818081809326
:1005F000DA009091DA008091E100981708F067C066
:100600008091EB008823E1F48091E1009091DA0081
:10061000891B8093E30020E030E0E9ECF0E0E20F9A
:10062000F31F90818091E300891728F42F5F3F4FDB
:100630002F30310591F7822F81508093E30038C02D
:100640009091DA008091EB00891740F48091DA00F4
:100650009091EB00891B8093EA0007C08091EB002A
:100660009091DA00891B8093EA008091E9008F3035
:1006700020F48091EC008093DA008091E100909169
:10068000DA00891B8093E30020E030E0E9ECF0E041
:10069000E20FF31F90818091E300891728F42F5F08
:1006A0003F4F2E30310591F7822F81508093E30028
:1006B0008091E3008093E8008091DA008093EC0061
:1006C0008091E1008093EB000E949A0110C0EBE35F
:1006D000F0E0808180688083E2E3F0E080818061E7
:1006E0008083808188608083808184608083E2EF62
:1006F000F0E08081823809F081C0F601808180932A
:10070000DF00E981FA8180818093F7009091F70002
:100710008091DF00981708F067C08091E700882378
:10072000E1F48091DF009091F700891B8093E20053
:1007300020E030E0E9ECF0E0E20FF31F90818091DF
:10074000E200891728F42F5F3F4F2F30310591F7D2
:10075000822F81508093E20038C09091F700809101
:10076000E700891740F48091F7009091E700891B1A
:100770008093E90007C08091E7009091F700891B02
:100780008093E9008091E9008F3020F48091E600A9
:100790008093F7008091DF009091F700891B809390
:1007A000E20020E030E0E9ECF0E0E20FF31F90819E
:1007B0008091E200891728F42F5F3F4F2F303105D9
:1007C00091F7822F81508093E2008091E200809324
:1007D000E5008091F7008093E6008091DF00809330
:1007E000E7000E94DF010AC09091DF008091F000D5
:1007F000891720F08FEFE8E3F0E08083E2EFF0E08C
:100800008081833809F068C0F60180818093E00020
:10081000E981FA8180818093DB009091DB008091F7
:10082000E000891708F04AC08091EE008823E1F4C7
:100830008091DB009091E000891B8093E40020E030
:1008400030E0E9ECF0E0E20FF31F90818091E400EA
:10085000891728F42F5F3F4F2F30310591F7822FF2
:1008600081508093E4001BC08091DB009091E000F8
:10087000891B8093E40020E030E0E9ECF0E0E20F37
:10088000F31F90818091E400891728F42F5F3F4F78
:100890002E30310591F7822F81508093E4008091B2
:1008A000E4008093ED008091DB008093EF00809165
:1008B000E0008093EE000E9455010EC0E5E3F0E0F9
:1008C0008081806180838081806880838081806472
:1008D000808380818062808381E060E00E948A055D
:1008E00085E060E00E944E06C1010E94E20580E0C2
:1008F00061E00E944E0688E790E00E94E205809148
:10090000E00090E063E070E00E94F0058CE790E08A
:100910000E94E2058091DB0090E063E070E00E94BD
:10092000F00580E062E00E944E0681E890E00E94BF
:10093000E2058091E10090E063E070E00E94F00544
:100940008CE790E00E94E2058091DA0090E063E09D
:1009500070E00E94F00580E063E00E944E0685E8AA
:1009600090E00E94E2058091DF0090E063E070E09B
:100970000E94F0058CE790E00E94E2058091F7006C
:1009800090E063E070E00E94F00562C0E2EFF0E00A
:100990008081833021F4F60180818093DD00E2EFD5
:1009A000F0E08081823021F4F60180818093DC00C8
:1009B000E2EFF0E08081813021F4F60180818093C4
:1009C000DE0081E060E00E948A0583E060E00E9432
:1009D0004E06C5010E94E20580E061E00E944E06DD
:1009E000C4010E94E20580E062E00E944E06C3015D
:1009F0000E94E20580E063E00E944E06C2010E9470
:100A0000E2058BE061E00E944E068091DD0090E0FF
:100A100063E070E00E94F0058BE062E00E944E0609
:100A20008091DE0090E063E070E00E94F0058BE0D2
:100A300063E00E944E068091DC0090E063E070E08D
:100A40000E94F0050E9480000E94C7000E940E01D3
:100A50001092D8001092D900A2CD1092D800109216
:100A6000D9009DCD80E487B987E886B9089597B10C
:100A7000987F97B997B18770892B87B9369A349B3D
:100A8000FECF349A24B135B1C901089589B990BD1A
:100A900086E880BD88ED8AB908955F9BFECF8CB152
:100AA00008955D9BFECF8CB90895FC0104C05D9B49
:100AB000FECF8CB9319680818823C9F7089584B31D
:100AC000807F84BB959A969882E08A95F1F722E020
:100AD00034E0979A822F8A95F1F783B38295807FCD
:100AE000922F9A95F1F79798932F9A95F1F7979AF5
:100AF000922F9A95F1F793B3922F9A95F1F79798D1
:100B0000932F9A95F1F787FDE4CF959884B38F6082
:100B100084BB0895282F662311F4969801C0969AF5
:100B200082E08A95F1F7979A85B3922F92959F70FC
:100B3000807F982B95BB94E0892F8A95F1F7979841
:100B4000892F8A95F1F7979A85B32F70807F822B32
:100B500085BB892F8A95F1F797989A95F1F70E94AE
:100B60005F0508951F93182F8CE291E020E731E094
:100B7000F9013197F1F70197D9F784B38F6084BBFE
:100B80008F9A8E9A8D9A85B3807F85BB979895981A
:100B9000969881E08A95F1F7979AA99A84E0982F20
:100BA0009A95F1F797988A95F1F70E945F05812F42
:100BB0008C6060E00E948A0588E260E00E948A05FD
:100BC0001F910895CF93DF93EC0104C061E00E9470
:100BD0008A05219688818823C9F7DF91CF910895EE
:100BE000EF92FF920F931F93DF93CF9300D000D02B
:100BF0000F92CDB7DEB79C018B01FE01319685E0E7
:100C0000DF011D928A95E9F7FE0135960DC0C901F5
:100C10006AE070E00E9463068083C9016AE070E0C8
:100C20000E9463069B0131972115310581F7BFEFC3
:100C30000F3F1B0779F420E030E0AE014F5F5F4FBC
:100C400002C02F5F3F4FFA01E20FF31F808188231C
:100C5000C1F304C025E030E0201B310B7E01089475
:100C6000E11CF11CE20EF31E890109C0F70181911C
:100C70007F01805D61E00E948A050F5F1F4F053094
:100C80001105A4F30F900F900F900F900F90CF913C
:100C9000DF911F910F91FF90EF900895843190F4B0
:100CA000662311F480680BC0613011F4806C07C0BA
:100CB000623011F4846903C0633009F4846D60E02C
:100CC0000E948A05089597FB092E07260AD077FD12
:100CD00004D00CD006D000201AF4709561957F4F97
:100CE0000895F6F7909581959F4F0895AA1BBB1B19
:100CF00051E107C0AA1FBB1FA617B70710F0A61B1C
:100D0000B70B881F991F5A95A9F780959095BC013C
:080D1000CD010895F894FFCF16
:100D18002020200053595354454D204F4B00415536
:100D2800544F204D4F444500483A200020202020B1
:100D380000543A20004C3A200053454D492D415566
:100D4800544F204D4F44450046414E204C45564592
:100D58004C3A00485452204C4556454C3A004C47B2
:100D680054204C4556454C3A000F0E0D0C0B0A0901
:100D78000807060504030201005D534D48433E374A
:080D88002D231B16110C0700BE
:00000001FF
